:0300000002000EED
:0C000E00787FE4F6D8FD758112020055E1
:10019E00C0F9A4B0999282F88090C0CFA4868B92B9
:1001AE0090C7808240792430191202780010404F97
:0801BE0024060B121047000299
:0D021900010800010B00010F0002090000A8
:1001EA00438E805389F0438901758A20758CD1C268
:0A01FA008DD28CD2A9D2AFD2B92267
:03000B0002009A56
:10009A00C0E0C0F0C0D0758C3C758AB0050AE50A8C
:1000AA0070020509641445097059F509F50A05082D
:1000BA00E508643C701AF508050BE50B643C701002
:1000CA00F50B050FE50F64187006F50FF50BF5082B
:1000DA00E50875F00A8485F00DE50875F00A84F5DF
:1000EA000CE50B75F00A8485F010E50B75F00A84AF
:1000FA00F50EE50F75F00A8485F012E50F75F00A22
:0A010A0084F511D0D0D0F0D0E0321F
:0401C6007F147E0024
:1001CA00E4FDFCC3ED9FEC9E5015E4FBFA0BBB006B
:0F01DA00010AEB646E4A70F50DBD00010C80E464
:0101E90022F3
:100114002095151201C620950F0508E508643C706A
:1001240004F508050B3095FD2096151201C620969E
:100134000F050BE50B643C7004F50B050F3096FDC1
:100144002097131201C620970D050FE50F64187050
:0701540002F50F3097FD22B8
:0A0204009001BC93F5A07F327E004C
:0B020E00EF1FAC0670011E4C70F622C2
:10015B00758020E50D90019E120207758010E50C4D
:10016B00120204758008E5109001B2120207758027
:10017B0004E50E120204758002E5129001B2120220
:10018B0007758001E5119001A893F5A07F327E00E1
:03019B0002020E4F
:0B0227001201EA12015B12011480F8C2
:10001A00020227E493A3F8E493A34003F68001F2D3
:10002A0008DFF48029E493A3F85407240CC8C333E7
:10003A00C4540F4420C8834004F456800146F6DFB6
:10004A00E4800B0102040810204080900219E47E2B
:10005A00019360BCA3FF543F30E509541FFEE493AB
:10006A00A360010ECF54C025E060A840B8E493A372
:10007A00FAE493A3F8E493A3C8C582C8CAC583CA9D
:10008A00F0A3C8C582C8CAC583CADFE9DEE780BE55
:0102260000D7
:00000001FF
